:020000040800F2
:1040000000000120D1CA0008095600080B5600081C
:104010001956000827560008355600080000000011
:1040200000000000000000000000000043560008EF
:104030004556000800000000475600084956000891
:1040400021CB000821CB000821CB000821CB0008A0
:1040500021CB000821CB00085156000821CB0008D5
:1040600021CB000821CB000821CB000821CB000880
:1040700021CB000821CB000821CB000821CB000870
:1040800021CB000821CB000821CB00080000000054
:1040900000000000000000000000000021CB00082C
:1040A0005997000821CB000821CB000821CB00083C
:1040B00021CB000821CB000821CB000821CB000830
:1040C00021CB000821CB000821CB000821CB000820
:1040D00021CB000821CB00085D560008000000003D
:1040E00021CB000821CB000821CB000800000000F4
:1040F00000000000000000000000000021CB0008CC
:104100000000000021CB000821CB000821CB0008D3
:10411000000000000000000000000000000000009F
:1041200021CB000821CB000821CB000821CB0008BF
:1041300021CB00080000000000000000000000008B
:1041400000000000000000000000000021CB00087B
:1041500021CB000869CA000821CB00086D56000871
:1041600021CB000821CB0008000000000000000067
:10417000000000000000000000000000000000003F
:104180000000000021CB000800000000000000003B
:0441900021CB000837
:1041A00010F8012B11F8013B012A28BF9A42F7D0E1
:1041B000D01A70470000000000000000000000005E
:1041C00001F0FF01102A2BDB10F0070F08D010F8C8
:1041D000013B013A8B422DD010F0070F42B3F6D1CC
:1041E000F0B441EA012141EA014122F007047FF0E5
:1041F00000070023F0E80256083C85EA010586EA3C
:10420000010685FA47F5A3FA87F586FA47F6A5FA77
:1042100087F68EB9EED1F0BC01F0FF0102F0070283
:1042200032B110F8013B013A83EA010313B1F8D12E
:104230000020704701387047002D06BF354603380F
:10424000073815F0010F07D1013015F4807F02BF48
:10425000013015F4C03F0130F0BC0138704700BF99
:10426000034613F8012B002AFBD1181A01387047B6
:1042700081F0004102E000BF83F0004330B54FEA17
:1042800041044FEA430594EA050F08BF90EA020F84
:104290001FBF54EA000C55EA020C7FEA645C7FEA17
:1042A000655C00F0E2804FEA5454D4EB5555B8BF3A
:1042B0006D420CDD2C4480EA020281EA030382EAAB
:1042C000000083EA010180EA020281EA0303362D3D
:1042D00088BF30BD11F0004F4FEA01314FF4801C10
:1042E0004CEA113102D0404261EB410113F0004F22
:1042F0004FEA03334CEA133302D0524263EB4303D9
:1043000094EA050F00F0A780A4F10104D5F1200E76
:104310000DDB02FA0EFC22FA05F2801841F10001D1
:1043200003FA0EF2801843FA05F359410EE0A5F1A5
:1043300020050EF1200E012A03FA0EFC28BF4CF0D6
:10434000020C43FA05F3C01851EBE37101F000458C
:1043500007D54FF0000EDCF1000C7EEB00006EEB99
:104360000101B1F5801F1BD3B1F5001F0CD3490823
:104370005FEA30004FEA3C0C04F101044FEA44527A
:1043800012F5800F80F09A80BCF1004F08BF5FEA01
:10439000500C50F1000041EB045141EA050130BDE1
:1043A0005FEA4C0C404141EB0101013C28BFB1F5F3
:1043B000801FE9D291F0000F04BF01460020B1FA3E
:1043C00081F308BF2033A3F10B03B3F120020CDA11
:1043D0000C3208DD02F1140CC2F10C0201FA0CF0EF
:1043E00021FA02F10CE002F11402D8BFC2F1200C54
:1043F00001FA02F120FA0CFCDCBF41EA0C0190400A
:10440000E41AA2BF01EB0451294330BD6FEA040452
:104410001F3C1CDA0C340EDC04F11404C4F120023D
:1044200020FA04F001FA02F340EA030021FA04F34F
:1044300045EA030130BDC4F10C04C4F1200220FAA6
:1044400002F001FA04F340EA0300294630BD21FAE4
:1044500004F0294630BD94F0000F83F4801306BFAA
:1044600081F480110134013D4EE77FEA645C18BF9E
:104470007FEA655C29D094EA050F08BF90EA020F35
:1044800005D054EA000C04BF1946104630BD91EA2D
:10449000030F1EBF0021002030BD5FEA545C05D130
:1044A0004000494128BF41F0004130BD14F580046F
:1044B0003CBF01F5801130BD01F0004545F0FE41E3
:1044C00041F470014FF0000030BD7FEA645C1ABF18
:1044D000194610467FEA655C1CBF0B46024650EA4F
:1044E000013406BF52EA033591EA030F41F400217B
:1044F00030BD00BF90F0000F04BF0021704730B501
:104500004FF4806404F132044FF000054FF00001D5
:1045100050E700BF90F0000F04BF0021704730B596
:104520004FF4806404F1320410F0004548BF40426B
:104530004FF000013EE700BF42004FEAE2014FEAC0
:1045400031014FEA02701FBF12F07F4393F07F4F9B
:1045500081F06051704732F07F4208BF704793F09E
:104560007F4F04BF41F40021704730B54FF46074B1
:1045700001F0004521F000411CE700BF50EA0102B4
:1045800008BF704730B54FF000050AE050EA01025D
:1045900008BF704730B511F0004502D5404261EBCD
:1045A00041014FF4806404F132045FEA915C3FF40E
:1045B000D8AE4FF003025FEADC0C18BF03325FEAAB
:1045C000DC0C18BF033202EBDC02C2F1200300FA5C
:1045D00003FC20FA02F001FA03FE40EA0E0021FA81
:1045E00002F11444BDE600BF70B54FF0FF0C4CF46F
:1045F000E06C1CEA11541DBF1CEA135594EA0C0F21
:1046000095EA0C0F00F0DEF82C4481EA030621EA5B
:104610004C5123EA4C5350EA013518BF52EA033596
:1046200041F4801143F4801338D0A0FB02CE4FF048
:104630000005E1FB02E506F00042E0FB03E54FF078
:104640000006E1FB03569CF0000F18BF4EF0010E70
:10465000A4F1FF04B6F5007F64F5407404D25FEA6C
:104660004E0E6D4146EB060642EAC62141EA55511F
:104670004FEAC52040EA5E504FEACE2EB4F1FD0C61
:1046800088BFBCF5E06F1ED8BEF1004F08BF5FEADF
:10469000500E50F1000041EB045170BD06F0004691
:1046A00046EA010140EA020081EA0301B4EB5C043E
:1046B000C2BFD4EB0C0541EA045170BD41F4801136
:1046C0004FF0000E013C00F3AB8014F1360FDEBF5B
:1046D000002001F0004170BDC4F10004203C35DA37
:1046E0000C341BDC04F11404C4F1200500FA05F3BA
:1046F00020FA04F001FA05F240EA020001F000425B
:1047000021F0004110EBD37021FA04F642EB0601D0
:104710005EEA430E08BF20EAD37070BDC4F10C04FA
:10472000C4F1200500FA04F320FA05F001FA04F2BE
:1047300040EA020001F0004110EBD37041F10001AA
:104740005EEA430E08BF20EAD37070BDC4F12005B5
:1047500000FA05F24EEA020E20FA04F301FA05F21D
:1047600043EA020321FA04F001F0004121FA04F2C5
:1047700020EA020000EBD3705EEA430E08BF20EA95
:10478000D37070BD94F0000F0FD101F000464000CF
:1047900041EB010111F4801F08BF013CF7D041EA51
:1047A000060195F0000F18BF704703F00046520055
:1047B00043EB030313F4801F08BF013DF7D043EA26
:1047C0000603704794EA0C0F0CEA135518BF95EADC
:1047D0000C0F0CD050EA410618BF52EA4306D1D163
:1047E00081EA030101F000414FF0000070BD50EA82
:1047F000410606BF1046194652EA430619D094EA0C
:104800000C0F02D150EA013613D195EA0C0F05D1F5
:1048100052EA03361CBF104619460AD181EA030149
:1048200001F0004141F0FE4141F470014FF0000001
:1048300070BD41F0FE4141F4780170BD70B54FF09C
:10484000FF0C4CF4E06C1CEA11541DBF1CEA13551C
:1048500094EA0C0F95EA0C0F00F0A7F8A4EB0504FE
:1048600081EA030E52EA03354FEA013100F08880F5
:104870004FEA03334FF0805545EA131343EA1263BE
:104880004FEA022245EA111545EA10654FEA002673
:104890000EF000419D4208BF964244F1FD0404F52C
:1048A000407402D25B084FEA3202B61A65EB030588
:1048B0005B084FEA32024FF480104FF4002CB6EB45
:1048C000020E75EB030E22BFB61A754640EA0C00C5
:1048D0005B084FEA3202B6EB020E75EB030E22BF05
:1048E000B61A754640EA5C005B084FEA3202B6EB46
:1048F000020E75EB030E22BFB61A754640EA9C0005
:104900005B084FEA3202B6EB020E75EB030E22BFD4
:10491000B61A754640EADC0055EA060E18D04FEA92
:10492000051545EA16754FEA06164FEAC30343EA32
:1049300052734FEAC2025FEA1C1CC0D111F4801FFF
:104940000BD141EA00014FF000004FF0004CB6E7F8
:1049500011F4801F04BF01430020B4F1FD0C88BF97
:10496000BCF5E06F3FF6AFAEB5EB030C04BFB6EBA2
:10497000020C5FEA500C50F1000041EB045170BD95
:104980000EF0004E4EEA113114EB5C04C2BFD4EBC2
:104990000C0541EA045170BD41F480114FF0000E46
:1049A000013C90E645EA060E8DE60CEA135594EAC2
:1049B0000C0F08BF95EA0C0F3FF43BAF94EA0C0FC5
:1049C0000AD150EA01347FF434AF95EA0C0F7FF43A
:1049D00025AF104619462CE795EA0C0F06D152EA8E
:1049E00003353FF4FDAE1046194622E750EA410672
:1049F00018BF52EA43067FF4C5AE50EA41047FF483
:104A00000DAF52EA43057FF4EBAE12E74FF0FF3CE7
:104A100006E000BF4FF0010C02E000BF4FF0010CB8
:104A20004DF804CD4FEA410C7FEA6C5C4FEA430C31
:104A300018BF7FEA6C5C1BD001B050EA410C0CBF80
:104A400052EA430C91EA030F02BF90EA020F0020E2
:104A5000704710F1000F91EA030F58BF994208BF49
:104A600090422CBFD8176FEAE37040F00100704706
:104A70004FEA410C7FEA6C5C02D150EA013C07D15D
:104A80004FEA430C7FEA6C5CD6D152EA033CD3D0A8
:104A90005DF8040B704700BF8446104662468C46A2
:104AA0001946634600E000BF01B5FFF7B7FF0028D5
:104AB00048BF10F1000F01BD4DF808EDFFF7F4FFFE
:104AC0000CBF012000205DF808FB00BF4DF808ED89
:104AD000FFF7EAFF34BF012000205DF808FB00BFAC
:104AE0004DF808EDFFF7E0FF94BF012000205DF8CE
:104AF00008FB00BF4DF808EDFFF7CEFF94BF012083
:104B000000205DF808FB00BF4DF808EDFFF7C4FF7B
:104B100034BF012000205DF808FB00BF4FEA410CC4
:104B20007FEA6C5C02D150EA013C0AD14FEA430CA7
:104B30007FEA6C5C02D152EA033C02D14FF00000E4
:104B400070474FF0010070474FEA410212F5001222
:104B500015D211D56FF47873B3EB625212D94FEAC4
:104B6000C12343F0004343EA505311F0004F23FAAE
:104B700002F018BF404270474FF00000704750EA03
:104B8000013005D111F0004008BF6FF000407047C0
:104B90004FF00000704700BF4A0011D212F500121A
:104BA00011D20DD56FF47873B3EB62520ED44FEA85
:104BB000C12343F0004343EA505323FA02F0704705
:104BC0004FF00000704750EA013002D14FF0FF3043
:104BD00070474FF0000070474FEA4102B2F1E043E6
:104BE00024BFB3F5001CDCF1FE5C0DD901F0004CD4
:104BF0004FEAC0024CEA5070B2F1004F40EB830024
:104C000008BF20F00100704711F0804F21D113F14F
:104C10003872BCBF01F00040704741F480114FEA88
:104C20005252C2F11802C2F1200C10FA0CF320FA11
:104C300002F018BF40F001004FEAC1234FEAD3232E
:104C400003FA0CFC40EA0C0023FA02F34FEA430398
:104C5000CCE77FEA625307D150EA01331EBF4FF021
:104C6000FE4040F44000704701F0004040F0FE403C
:104C700040F40000704700BF7BB972B90029BEBF85
:104C800000204FF0004106E008BF00281CBF6FF075
:104C900000414FF0FF3000F057B8ADF1080C6DE95E
:104CA00004CE002909DB002B1ADB0CF071F9DDF8CA
:104CB00004E0DDE9022304B07047404261EB4101AA
:104CC000002B1BDB0CF064F9DDF804E0DDE90223C6
:104CD00004B0404261EB4101524263EB4303704731
:104CE000524263EB43030CF053F9DDF804E0DDE9D5
:104CF000022304B0404261EB41017047524263EB32
:104D000043030CF045F9DDF804E0DDE9022304B0CB
:104D1000524263EB4303704753B94AB9002908BFB5
:104D200000281CBF4FF0FF314FF0FF3000F00CB8EF
:104D3000ADF1080C6DE904CE0CF02AF9DDF804E0C1
:104D4000DDE9022304B07047704700BF0348044BFD
:104D5000834202D0034B03B118477047D4010020AF
:104D6000D4010020000000000548064B1B1AD90F93
:104D700001EBA301491002D0034B03B11847704760
:104D8000D4010020D40100200000000010B5064C22
:104D9000237843B9FFF7DAFF044B13B10448AFF3AC
:104DA00000800123237010BDD4010020000000000A
:104DB000B012010808B5054B1BB105490548AFF312
:104DC0000080BDE80840FFF7CFBF00BF0000000033
:104DD000D8010020B01201082DE9F04F8BB005ADCD
:104DE0000024059406940794089409940094524B67
:104DF0001A6B42F080021A631A6B02F08002009272
:104E0000009A01941A6B42F004021A631A6B02F0C2
:104E100004020192019A02941A6B42F001021A6391
:104E20001A6B02F001020292029A03941A6B42F08A
:104E300008021A631A6B02F008020392039A0494A0
:104E40001A6B42F002021A631B6B03F00203049315
:104E5000049B3A4F224649F21001384601F0AEFF5A
:104E6000DFF8DC80224643F62061404601F0A6FFD1
:104E7000DFF8D0B022460421584601F09FFFDFF84A
:104E8000C8A022461021504601F098FF0126059641
:104E90004FF40413069307942946404601F09EFE02
:104EA00049F210030593069607940894294638465C
:104EB00001F094FE082305934FF00209CDF81890F5
:104EC000079403230893072309932946384601F0E2
:104ED00085FE43F6206305930696079408942946B9
:104EE000404601F07BFE4FF00408CDF81480069692
:104EF000079408942946584601F070FE1023059344
:104F00000696079408942946504601F067FE22460B
:104F10000521062002F044FA062002F051FACDF8ED
:104F200014800694CDF81C9008942946384601F068
:104F300055FE0BB0BDE8F08F003802400000024083
:104F400000080240000C02400004024002681B4BB3
:104F50009A4230D070470133032BFBDC184A52F8D9
:104F60002310013142F8231052F8231003F10802F4
:104F7000144830F81220914206D3114A002142F819
:104F80002310114A0121D154104A52F82310013143
:104F900042F8231052F8231003F10C02094830F8AC
:104FA00012209142D7D3094A002142F82310084A1F
:104FB0000121D154CFE70023CEE700BF00400140DC
:104FC0007C0800206807002078080020680800207E
:104FD0006408002000B583B072B61021064801F0C5
:104FE000F3FE00230193019A044B9A42F5D8019BEA
:104FF00001330193F7E700BF000002407F841E00E9
:1050000008B50A480A4B03600A4B436000238360DB
:10501000C3604FF48042026143618361C3610362F4
:1050200000F076FF00B908BDFFF7D4FFFC030020B5
:1050300000540040A086010010B592B000241094E6
:10504000119409940A940B940C940D940E940F945B
:105050002022214601A809F0C0F92C482C4B0360FE
:105060000323436084604FF47A73C3600461446136
:10507000846102F021FC00283AD11090119010A90F
:10508000224802F033FE002834D1602309930246FF
:105090000A900B900C900D900E900F9009A91B4850
:1050A00002F0C6FC40BB042209A9184802F0C0FC6B
:1050B00020BB082209A9154802F0BAFC00BB0C224B
:1050C00009A9124802F0B4FCE0B9019002900390E3
:1050D000049005904FF400520692089001A90B48E5
:1050E00002F042FE80B9094800F0EEFB12B010BD9C
:1050F000FFF770FFFFF76EFFFFF76CFFFFF76AFF28
:10510000FFF768FFFFF766FFFFF764FFB4030020B7
:105110000000014010B58CB003AC242200212046D1
:1051200009F05BF900230193029312484FF080428B
:105130000260436083604FF0FF32C26003618361AD
:1051400003230393012205920423079309920B93EF
:10515000214602F0DDFB40B90190029001A905480B
:1051600002F0C4FD18B90CB010BDFFF733FFFFF714
:1051700031FF00BF6C03002010B58CB003AC2422BB
:105180000021204609F029F90023019302931148D8
:10519000114A0260436083604FF6FF72C260036190
:1051A0008361032303930122059204230793099249
:1051B0000B93214602F0ACFB40B90190029001A98B
:1051C000044802F093FD18B90CB010BDFFF702FFC0
:1051D000FFF700FF240300200004004010B58CB04E
:1051E00003AC24220021204609F0F7F800230193A4
:1051F00002931148114A0260436083604FF6FF72C8
:10520000C260036183610323039301220592042397
:10521000079309920B93214602F07AFB40B9019063
:10522000029001A9044802F061FD18B90CB010BD4C
:10523000FFF7D0FEFFF7CEFEDC02002000080040A2
:1052400010B58CB003AC24220021204609F0C5F82B
:105250000023019302931148114A02604360836066
:105260004FF0FF32C2600361836103230393012285
:1052700005920423079309920B93214602F048FB01
:1052800040B90190029001A9044802F02FFD18B91D
:105290000CB010BDFFF79EFEFFF79CFE94020020AD
:1052A000000C004008B50A480A4B03604FF4E13394
:1052B000436000238360C360036104224261836111
:1052C000C36102F0B3FE00B908BDFFF783FE00BF63
:1052D0004C0200200044004008B50948094B036017
:1052E000094B436000238360C36003610C22426169
:1052F0008361C36102F09AFE00B908BDFFF76AFE40
:10530000040200200014014080841E0010B594B0F7
:105310003022002108A809F060F8002303930493C9
:1053200005930693079301933A4A116C41F080511B
:105330001164116C01F08051019101990293364979
:105340000B6823F4404343F400430B600B6803F401
:1053500040430293029B936803F00C03082B42D056
:10536000012308934FF48033099302230E934FF4E3
:1053700080030F93082310934FF4A8731193042311
:1053800012930723139308A801F0E4F8E0B1234B2C
:105390004FF001021A7008AC30220021204609F0BB
:1053A0001CF80222089201230B9310230C930E92F7
:1053B00010934FF4A87311930423129307231393AC
:1053C000204601F0C7F808BB0F2303930221049184
:1053D00005904FF480520692079003A801F028FB35
:1053E000B0B914B010BD936823F00303936002F0CA
:1053F0004FF80446074B9B6813F00C0FB0D002F037
:1054000047F8001B6428F5D9FFF7E4FDFFF7E2FD3C
:10541000FFF7E0FD0038024000700040F40100207A
:1054200008B502F00FF83D4B3D4A9A60BFF34F8F2D
:10543000BFF36F8F62B6FFF769FF3A483A4B0360DC
:10544000042343604FF4FA73836003F08FF908B1CB
:10545000FFF7C0FD354A936843F480539360FFF72C
:10546000BBFCFFF7CDFDFFF7E7FDFFF753FEFFF7AE
:1054700083FEFFF7B3FEFFF7E3FEFFF713FFFFF72F
:105480002BFF06F0DFFF2A4B1B7803BB04F030F83C
:1054900003F0AAF903F0A6FB03F026FD04F0F6F8EA
:1054A00005F010FC06F06AF906F0D0FB092121484E
:1054B00007F0E2FA204B93F82130012B0ED00320A5
:1054C00006F0DAFF09211D4807F0D6FA1AE0642336
:1054D00009221B491B4802F0D9FDD7E7022006F03C
:1054E000CBFFEFE704F09CF904F0C0F913E030BF04
:1054F00001F0CEFF144B1B689842F8D001F0C8FFB2
:10550000114B1860074803F05FF906F0D7FF06F06B
:1055100093FF0028E6D006F03DFEE9E700ED00E04D
:1055200000400008F801002000300040002004E0A6
:10553000F4010020E412010868070020F0120108BD
:10554000D812010804020020F0010020104B114A7B
:105550001A6058604FF0E022D2F8281D9960D2F806
:105560002C1DD960D2F8341D1961D2F8382D5A613A
:10557000734613F0040F07D0EFF309829169044BCF
:1055800099615269DA617047EFF30882F6E700BF6C
:10559000B87D0020FAADDE0030B585B0054672B6A4
:1055A00026E0019B01330193019A144B9A42F8D9EA
:1055B00000221021124801F001FC0023029302E0B6
:1055C000029B01330293029A0C4B9A42F8D90134A0
:1055D000AC4207DA01221021094801F0EFFB002359
:1055E0000193E1E700230393039A064B9A4201D902
:1055F0000024EDE7039B01330393F5E73F0D030020
:10560000000002407F841E00FEE708B50020FFF77F
:105610009DFF0120FFF7C0FF08B50120FFF796FFAF
:105620000220FFF7B9FF08B50220FFF78FFF032024
:10563000FFF7B2FF08B50320FFF788FF0420FFF74C
:10564000ABFF70477047704708B501F015FF08BD04
:1056500008B5012001F0C2FB08BD000008B50248F2
:1056600002F06EFE08BD00BF4C02002008B50248E3
:1056700002F066FE08BD00BF0402002082B00021D7
:1056800000910B4B5A6C42F480425A645A6C02F4FB
:1056900080420092009A01911A6C42F080521A6482
:1056A0001B6C03F080530193019B02B0704700BF55
:1056B0000038024030B589B000230393049305936A
:1056C000069307930268144B9A4201D009B030BD8B
:1056D00000250195114C236B43F002032363236BD8
:1056E00003F002030193019B4FF4407303931223D1
:1056F0000493032306930423079303A9084801F0A6
:105700006DFA0295236C43F400132364236C03F4B5
:1057100000130293029BD9E7005400400038024076
:10572000000402400268094B9A4200D0704782B0E0
:1057300000230193064B5A6C42F001025A645B6CE1
:1057400003F001030193019B02B070470000014088
:105750000038024070B58EB0002309930A930B9372
:105760000C930D930368B3F1804F0AD0504A9342D3
:105770003DD0504A93425AD04F4A934277D00EB010
:1057800070BD0024009403F50E331A6C42F0010240
:105790001A641A6C02F001020092009A01941A6BCA
:1057A00042F001021A631A6B02F001020192019A9F
:1057B00002941A6B42F002021A631B6B03F002039D
:1057C0000293029B2023099302250A9501260D9638
:1057D00009A93A4801F002FA082309930A950B94A3
:1057E0000C940D9609A9364801F0F8F9C7E7002195
:1057F0000391344B1A6C42F002021A641A6C02F0E4
:1058000002020392039A04911A6B42F001021A6396
:105810001B6B03F001030493049BC0230993022331
:105820000A930D9309A9254801F0D8F9A7E70021AB
:105830000591244B1A6C42F004021A641A6C02F0AF
:1058400004020592059A06911A6B42F002021A634D
:105850001B6B03F002030693069BC02309930223EC
:105860000A930D9309A9164801F0B8F987E70021BA
:105870000791144B1A6C42F008021A641A6C02F079
:1058800008020792079A08911A6B42F001021A6304
:105890001B6B03F001030893089B03230993022366
:1058A0000A930D9309A9054801F098F967E700BF2D
:1058B0000004004000080040000C004000000240CE
:1058C000000402400038024000B587B00023019375
:1058D000029303930493059302680E4B9A4201D0FE
:1058E00007B000BD002300930B4B1A6B42F001027E
:1058F0001A631B6B03F001030093009B4FF470636A
:105900000193022302930123059301A9034801F0A7
:1059100065F9E5E700000140003802400000024060
:1059200010B58AB0044600230593069307930893A5
:1059300009930268354B9A4205D02268344B9A424B
:105940002DD00AB010BD0021019103F5FA331A6C75
:1059500042F400321A641A6C02F400320192019A85
:1059600002911A6B42F001021A631B6B03F00103F0
:105970000293029B082305930223069303230893B3
:105980000723099305A9234801F028F900220521DE
:10599000262001F005FD262001F012FDCDE70024B0
:1059A000039403F592335A6C42F020025A645A6C05
:1059B00002F020020392039A5A6A42F020025A62CD
:1059C0005A6A22F020025A6204941A6B42F00402CE
:1059D0001A631B6B03F004030493049BC023059319
:1059E00002230693012307930323089308230993B3
:1059F00005A9094801F0F2F822460521472001F0E7
:105A0000CFFC472001F0DCFC9BE700BF00440040D6
:105A100000140140000002400008024003685A6977
:105A200012F4806F01D1002070476FF480625A61D8
:105A300000230363202280F83D2080F83E30026C72
:105A400042F00402026480F83C30012070472DE9E6
:105A5000F04106460C46174698463BE001F018FD1B
:105A6000069BC01A404502D8B8F1000F32D1012D73
:105A700018D033689B6924EA03039BB2B3FA83F31B
:105A80005B099F4226D100233363202286F83D2004
:105A900086F83E30326C42F02002326486F83C30A8
:105AA000012027E033685B6924EA03039BB2B3FA61
:105AB00083F35B09E5E733685B6924EA030C1FFAAB
:105AC0008CFCBCFA8CFC4FEA5C1C674511D1B8F128
:105AD000FF3FC3D1C4F30745012DECD033689B6968
:105AE00024EA030C1FFA8CFCBCFA8CFC4FEA5C1C09
:105AF000EBE70020BDE8F0812DE9F04104460D46BA
:105B00001746984652E01A6842F400721A602368F9
:105B10006FF480625A6100232363202284F83D20C1
:105B200084F83E30226C42F00402226484F83C3057
:105B3000012049E001F0ACFC4346C01AB84201D84C
:105B4000002F33D1012E17D023689B6925EA030368
:105B50009BB2003B18BF012343B3002323632022E1
:105B600084F83D2084F83E30226C42F0200222640A
:105B700084F83C30012027E023685B6925EA0303B1
:105B80009BB2003B18BF0123E6E723689B6925EA27
:105B900003039BB2003B18BF0123A3B123685A69DA
:105BA00012F4806FAFD1B7F1FF3FC3D1C5F3074601
:105BB000012EEAD123685B6925EA03039BB2003B0F
:105BC00018BF0123E9E71846BDE8F08170B5044627
:105BD0000D46164623685B6913F0800F21D12046DD
:105BE000FFF71CFFF8B9B5F1FF3FF3D001F050FC0F
:105BF000801BA84201D8002DECD123685B6913F00B
:105C0000800FE7D100232363202284F83D2084F80D
:105C10003E30226C42F02002226484F83C300120A5
:105C200000E0002070BD0120FCE70000F0B585B069
:105C300004460D4616461F460368196841F48071F4
:105C400019600B9B00930A9B00224FF00111FFF794
:105C5000FEFE60B9226805F0FE0313610B9B0A9AF1
:105C600023492046FFF748FF60B1012008E0236880
:105C70001B6813F4807F02D04FF400732364032069
:105C800005B0F0BD039023685A6903929B690393A2
:105C9000039B0B9A0A992046FFF798FF28B9012F1A
:105CA0000ED12368F2B21A61EAE7236C042B01D00B
:105CB0000120E5E72268136843F400731360F7E7F7
:105CC000330A226813610B9A0A992046FFF77EFF78
:105CD00018B92268F3B21361D2E7236C042B01D008
:105CE0000120CDE72268136843F400731360F7E7DF
:105CF00002000100F0B585B004460D4616461F4669
:105D00000268136843F4806313600268136843F405
:105D1000807313600B9B00930A9B00224FF00111CC
:105D2000FFF795FE60B9236805F0FE021A610B9B30
:105D30000A9A40492046FFF7DFFE60B1012008E0E3
:105D400023681B6813F4807F02D04FF40073236430
:105D5000032005B0F0BD039023685A6903929B6944
:105D60000393039B0B9A0A992046FFF72FFF80B9F4
:105D7000012F19D12368F2B21A610B9A0A992046B1
:105D8000FFF724FF00282DD0236C042B24D0012002
:105D9000DFE7236C042B01D00120DAE722681368C7
:105DA00043F400731360F7E7330A226813610B9A18
:105DB0000A992046FFF70AFF18B92268F3B2136167
:105DC000DBE7236C042B01D00120C2E722681368B3
:105DD00043F400731360F7E72268136843F4007319
:105DE0001360D4E72268136843F4807313600B9B3D
:105DF00000930A9B02464FF001112046FFF727FE51
:105E000070B9226845F00103DBB213610B9B0A9A5B
:105E100008492046FFF770FE00289AD0012098E735
:105E200023681B6813F4807F02D04FF4007323644F
:105E300003208EE70200010070B504460D461646A9
:105E400023685B6913F0040F21D12046FFF7E6FDBC
:105E5000F8B9B5F1FF3FF3D001F01AFB801BA8425F
:105E600001D8002DECD123685B6913F0040FE7D152
:105E700000232363202284F83D2084F83E30226CE6
:105E800042F02002226484F83C30012000E000202F
:105E900070BD0120FCE770B504460D46164614E0BF
:105EA0006FF010025A6100232363202284F83D2002
:105EB00084F83E30226C226484F83C30012025E0D6
:105EC00023685B6913F0400F10D02368586910F005
:105ED000400F1AD1586910F0100FE1D101F0D8FA33
:105EE000801BA842ECD8002DEFD1E9E70023236303
:105EF000202284F83D2084F83E30226C42F02002BB
:105F0000226484F83C30012000E0002070BD0000D5
:105F1000002800F0DA8038B5044690F83D30002BB8
:105F200051D0242384F83D302268136823F0010304
:105F300013602268136843F40043136022681368F7
:105F400023F40043136000F029FE6268614B9A421B
:105F50003ED8614B98428CBF00230123002B40F0B8
:105F6000B6805E49A1FB00318B0CD4F800C0DCF890
:105F7000042022F03F0242EA9142CCF8042021683A
:105F80000A6A22F03F02DFF84CC16568654525D8F2
:105F9000013313430B622168CA6922F44F4222F095
:105FA000FF02D4F804C04B4B9C4522D8431E4FEA55
:105FB0004C0CB3FBFCF3013340F6FC70034254D0AD
:105FC000C3F30B0352E080F83C30FFF773FBA8E704
:105FD000434B98428CBF00230123BFE74FF4967CCC
:105FE0000CFB03F3DFF8FCC0ACFB03C39B090133DC
:105FF000CFE7D4F808E0BEF1000F1AD1431E0CEB36
:106000004C05B3FBF5F30133C3F30B03B3FA83F38E
:106010005B09002B57D1BEF1000F19D1431E0CEBC9
:106020004C0CB3FBFCF30133C3F30B0343F4004309
:106030001CE00CEB8C0303EB83031D46431EB3FBF8
:10604000F5F30133C3F30B03B3FA83F35B09E0E722
:10605000431E0CEB8C0C0CEB8C0CB3FBFCF30133F0
:10606000C3F30B0343F4404300E004231A43CA6123
:1060700021680B6823F0C003E269206A02431343DE
:106080000B6021688B6823F4034323F0FF0322692C
:10609000E068024313438B602168CB6823F0FF0361
:1060A0006269A06902431343CB602268136843F01E
:1060B0000103136000202064202384F83D30206316
:1060C00084F83E0038BD0123D0E70120704701204D
:1060D000F8E700BFA08601007F841E0083DE1B431B
:1060E000FF083D00D34D62102DE9F04182B0044617
:1060F0000E461746984601F0CBF994F83D20202A29
:1061000003D0022002B0BDE8F081054600901923BB
:1061100001224C492046FFF79AFC002840F08B8072
:1061200094F83C30012B00F08880012384F83C3047
:1061300023681A6812F0010F03D11A6842F00102B5
:106140001A602268136823F400631360212384F823
:106150003D30402384F83E3000232364089B636273
:10616000BDF824306385638D2385374BE362019549
:106170000A9B009343463A4631462046FFF756FDB8
:1061800000285CD1238D002B36D02A460A99204660
:10619000FFF71CFD002824D1626A236812781A6177
:1061A000626A531C6362218D013989B22185638D36
:1061B0009BB2013B9BB263852368586910F0040FC2
:1061C000E0D00029DED052781A61636A013363623D
:1061D000238D013B2385638D9BB2013B9BB263857D
:1061E000D0E7236C042B01D001208BE722681368D1
:1061F00043F400731360F7E72A460A992046FFF735
:106200001BFE50B1236C042B01D001207AE72268D9
:10621000136843F400731360F7E72268136843F4CC
:1062200000731360202384F83D30002384F83E304F
:1062300084F83C3066E7022064E7022062E7012030
:1062400060E700BF020010000000FFFF2DE9F043EF
:1062500087B004460F4690469946109E01F018F903
:1062600094F83D20202A05D002231F46384607B067
:10627000BDE8F08305460090192301228849204695
:10628000FFF7E5FB002840F04D8194F83C30012BEE
:1062900000F04B81012384F83C3023681A6812F027
:1062A000010F03D11A6842F001021A6022681368D4
:1062B00023F400631360222384F83D30402384F8E4
:1062C0003E30002323640E9B6362BDF83C3063853F
:1062D000638D2385734BE362019500964B464246DE
:1062E00039462046FFF706FD0746002840F020818A
:1062F000238D5BB9029323685A6902929A690292CC
:10630000029A1A6842F400721A6075E0012B0AD0F2
:10631000022B1AD00023059323685A6905929B69C2
:106320000593059B68E02268136823F4806313607B
:106330000023039323685A6903929A690392039A8C
:106340001A6842F400721A6056E02268136823F457
:10635000806313602268136843F4006313600023B2
:10636000049323685A6904929B690493049B43E055
:106370002A4631462046FFF78EFD002840F0DB809C
:1063800023681A69636A1A70636A01336362238D32
:10639000013B2385638D9BB2013B9BB263852BE060
:1063A00000953346002240492046FFF750FB002865
:1063B00040F0C4802268136843F4007313602368BC
:1063C0001A69636A1A70626A531C6362238D013B07
:1063D0002385638D9BB2013B9BB2638523681B6958
:1063E0005370636A01336362238D013B2385638DA0
:1063F0009BB2013B9BB26385238D002B00F089800B
:10640000032B53D8012BB3D0022BC9D000953346B0
:10641000002225492046FFF71AFB002840F0918012
:106420002268136823F48063136023681A69636A1F
:106430001A70636A01336362238D013B2385638D88
:106440009BB2013B9BB263850095334602461649D9
:106450002046FFF7FCFA002876D12268136843F43F
:106460000073136023681A69636A1A70626A531CA6
:106470006362238D013B2385638D9BB2013B9BB2FD
:10648000638523681B695370636A01336362238DDC
:10649000013B2385638D9BB2013B9BB26385ABE7D8
:1064A000020010000000FFFF040001002A463146F0
:1064B0002046FFF7F0FC002849D123681A69636A77
:1064C0001A70636A01336362228D013A92B22285A7
:1064D000638D9BB2013B9BB263852368596911F0C0
:1064E000040F89D0032A0FD023681A69636A1A70CF
:1064F000636A01336362238D013B2385638D9BB205
:10650000013B9BB2638577E71A6822F480621A60C8
:10651000EAE7202384F83D30002384F83E3084F8F5
:106520003C30A3E602231F46A0E602231F469DE659
:1065300001231F469AE601231F4697E601231F46C3
:1065400094E601231F4691E601231F468EE60123B0
:106550001F468BE6002800F0E48170B582B0044647
:10656000036813F0010F3CD09C4B9B6803F00C03B5
:10657000042B2DD0994B9B6803F00C03082B22D0E1
:106580006368B3F5803F50D0B3F5A02F53D0934B41
:106590001A6822F480321A601A6822F480221A6083
:1065A0006368002B51D000F073FF05468B4B1B68CE
:1065B00013F4003F15D100F06BFF401BB0F57A7F5C
:1065C000F4D90320B4E1854B5B6813F4800FD7D076
:1065D000824B1B6813F4003F03D06368002B00F06C
:1065E000A281236813F0020F55D07C4B9B6813F0F7
:1065F0000C0F3FD0794B9B6803F00C03082B34D071
:10660000E368002B69D0764B01221A6000F040FF4E
:106610000546724B1B6813F0020F55D100F038FF8E
:10662000401B0228F5D9032082E16C4A136843F429
:1066300080331360B4E7694B1A6842F480221A6011
:106640001A6842F480321A60AAE700F021FF05467A
:10665000624B1B6813F4003FC3D000F019FF401BCE
:10666000B0F57A7FF4D9032062E15C4B5B6813F4E8
:10667000800FC5D1594B1B6813F0020F03D0E3689C
:10668000012B40F05281554A136823F0F803216929
:1066900043EAC1031360236813F0080F42D0636913
:1066A0006BB34F4B0122C3F8802E00F0F1FE05467C
:1066B0004A4B5B6F13F0020F34D100F0E9FE401B30
:1066C0000228F5D9032033E1444A136823F0F80384
:1066D000216943EAC1031360DDE7414B00221A60E0
:1066E00000F0D6FE05463D4B1B6813F0020FD2D0DA
:1066F00000F0CEFE401B0228F5D9032018E1384BEC
:106700000022C3F8802E00F0C3FE0546334B5B6FBA
:1067100013F0020F06D000F0BBFE401B0228F5D993
:10672000032005E1236813F0040F79D02B4B1B6C79
:1067300013F0805F34D100230193284B1A6C42F090
:1067400080521A641B6C03F080530193019B012358
:106750001E46244B1B6813F4807F24D0A368012BB2
:1067600035D0052B40D01D4B1A6F22F001021A675D
:106770001A6F22F004021A67A368002B3ED000F0C3
:1067800087FE0546154B1B6F13F0020F47D100F033
:106790007FFE401B41F288339842F3D90320C7E0C3
:1067A00000231E46D5E70F4A136843F48073136035
:1067B00000F06EFE05460B4B1B6813F4807FCDD1B5
:1067C00000F066FE401B0228F5D90320B0E0034A22
:1067D000136F43F001031367CEE700BF0038024098
:1067E0000000474200700040584B1A6F42F004020C
:1067F0001A671A6F42F001021A67BDE700F048FEFF
:106800000546524B1B6F13F0020F08D000F040FEFC
:10681000401B41F288339842F3D9032088E0EEB957
:10682000A369002B00F08380484A926802F00C02B2
:10683000082A51D0022B17D0454B00221A6600F0CF
:1068400027FE0446414B1B6813F0007F42D000F046
:106850001FFE001B0228F5D9032069E03B4A136C98
:1068600023F080531364DBE7394B00221A6600F0F3
:106870000FFE0546354B1B6813F0007F06D000F075
:1068800007FE401B0228F5D9032051E0E369226A84
:106890001343626A43EA8213A26A5208013A43EA46
:1068A0000243E26A43EA0263284A5360284B01220A
:1068B0001A6600F0EDFD0446244B1B6813F0007FC0
:1068C00006D100F0E5FD001B0228F5D903202FE0DA
:1068D00000202DE000202BE0012B2BD01B4B5B6810
:1068E00003F48001E269914226D103F03F02216A5C
:1068F0008A4223D1616A47F6C0721A40B2EB811F07
:106900001ED103F44031A26A5208013AB1EB024FA2
:1069100018D103F07063E26AB3EB026F14D1002068
:1069200006E001207047012002E0012000E0184647
:1069300002B070BD0120FBE70120F9E70120F7E775
:106940000120F5E70120F3E70120F1E700380240DC
:106950000000474208B5334B9B6803F00C03042B3F
:106960005BD0082B5BD12F4B5A6802F03F025B686B
:1069700013F4800F2CD02B4B5868C0F388104FEACB
:10698000401CBCEB000C6EEB0E0E4FEA8E1343EA7C
:106990009C634FEA8C11B1EB0C0163EB0E03DB003F
:1069A00043EA5173C90011EB000C43F10003590293
:1069B00000234FEA4C2041EADC51FEF7ADF9194BB8
:1069C0005B68C3F3014301335B00B0FBF3F008BD28
:1069D000144B5868C0F388104FEA401CBCEB000C05
:1069E0006EEB0E0E4FEA8E1343EA9C634FEA8C1156
:1069F000B1EB0C0163EB0E03DB0043EA5173C900FA
:106A000011EB000C43F10003990200234FEA8C20A4
:106A100041EA9C51FEF780F9D1E70348D7E70348E4
:106A2000D5E700BF0038024000127A000024F400CD
:106A3000002800F09B8070B50D4604464F4B1B6844
:106A400003F007038B4208D2CBB24C4A1370136891
:106A500003F007038B4240F08B80236813F0020F92
:106A600017D013F0040F04D0454A936843F4E05361
:106A70009360236813F0080F04D0414A936843F4ED
:106A8000604393603E4A936823F0F003A1680B4390
:106A90009360236813F0010F32D06368012B21D07B
:106AA0009A1E012A25D9364A126812F0020F61D0C7
:106AB00033498A6822F0030213438B6000F0E8FC3C
:106AC00006462F4B9B6803F00C036268B3EB820F02
:106AD00016D000F0DDFC801B41F288339842F0D9DB
:106AE000032042E0264A126812F4003FE0D1012060
:106AF0003BE0234A126812F0007FD9D1012034E034
:106B00001E4B1B6803F00703AB4207D9EAB21B4BCD
:106B10001A701B6803F00703AB422DD1236813F0F2
:106B2000040F06D0164A936823F4E053E1680B4340
:106B30009360236813F0080F07D0114A936823F479
:106B40006043216943EAC1039360FFF703FF0C4BE5
:106B50009B68C3F303130B4AD35CD8400A4B1860FD
:106B60000A4B186800F048FC002070BD01207047F7
:106B70000120FAE70120F8E70120F6E7003C024097
:106B800000380240502401080800002004000020C2
:106B9000014B1868704700BF0800002008B5FFF7D8
:106BA000F7FF044B9B68C3F38223034AD35CD840AE
:106BB00008BD00BF003802404824010808B5FFF7AF
:106BC000E7FF044B9B68C3F34233034AD35CD840CE
:106BD00008BD00BF003802404824010870B582B0EB
:106BE0008E46002369E085684FEA430C032101FAD1
:106BF0000CF125EA0105DEF80C1001FA0CF129432D
:106C00008160416821EA0201DEF80420C2F300122B
:106C10009A400A43426064E0D908083150F82120C4
:106C200003F00705AD004FF00F0C0CFA05FC22EA4B
:106C30000C0CDEF81020AA4042EA0C0240F8212099
:106C400066E0042200E0002202FA0CF22A4302313C
:106C5000564D45F82120564A9168E24321EA040541
:106C6000DEF8046016F4801F01D044EA01055049A3
:106C70008D60C96802EA0105DEF8046016F4001FA1
:106C800001D044EA01054A49CD60496802EA01059C
:106C9000DEF8046016F4003F01D044EA01054449DF
:106CA0004D6009680A40DEF8045015F4803F01D0B9
:106CB00044EA01023E490A6001330F2B74D80122D5
:106CC0009A40DEF8001001EA020432EA0101F3D131
:106CD000DEF8041001F0030C0CF1FF3CBCF1010FD5
:106CE00081D9DEF8042002F00302032A0AD0C16829
:106CF0005D000322AA4021EA0201DEF80820AA4032
:106D00000A43C260DEF8042002F00302022A83D0A4
:106D100001684FEA430C032202FA0CF221EA020155
:106D2000DEF8042002F0030202FA0CF20A430260C9
:106D3000DEF8042012F4403FBED0002201921D4A2A
:106D4000516C41F480415164526C02F480420192D2
:106D5000019A99088D1C154A52F8255003F0030C2E
:106D60004FEA8C0C0F2202FA0CF225EA0205124AB5
:106D700090423FF468AF02F5806290420ED002F577
:106D8000806290420CD002F5806290420AD002F5F7
:106D9000806290423FF455AF072255E7012253E746
:106DA000022251E703224FE702B070BD00380140D4
:106DB000003C014000380240000002400AB18161FD
:106DC0007047090481617047436901EA030221EABF
:106DD000030141EA024181617047000008B5054B9B
:106DE0005B69034200D108BD024B586105F08EF883
:106DF000F9E700BF003C014010B5D0F800E0DEF834
:106E000000C02CF4802CCEF800C004686360836856
:106E1000402B04D0036899600368DA6010BD0368F2
:106E20009A600368D960F9E70368D9B210390A4A51
:106E3000A2FB01C21209DFF824C01CF80220C265BF
:106E40005F2905D96FF3090304338365806D7047AB
:106E50006FF309038365F9E7ABAAAAAA40240108E6
:106E6000836A826992B9012B0AD0022B02D00BB13E
:106E700000207047C36A13F0807F2CD10020704738
:106E8000C36AB3F1C07F28D000207047B2F5005F1D
:106E900009D0022B2BD9032B2BD1C36A13F0807F8F
:106EA00029D100207047022B19D00AD8CBB1012B71
:106EB00005D1C36A13F0807F15D1002070470020F0
:106EC0007047032B05D1C36AB3F1C07F0DD00020FA
:106ED0007047002070470120704701207047012053
:106EE0007047012070470120704701207047012042
:106EF00070470020704701207047000070B50446BD
:106F000000F0C6FA002C5CD00546022384F8353028
:106F1000002384F834302268136823F001031360DF
:106F200023681A6812F0010F0AD000F0B1FA431B6F
:106F3000052BF5D920236365032084F8350070BD47
:106F40001A68214911406268A0680243E068024360
:106F50002069024360690243A0690243E069024379
:106F6000206A02430A43616A04291FD01A60236819
:106F70001E465D6925F00705636A1D43042B07D192
:106F8000A36A1D43E36A1BB12046FFF769FF90B96E
:106F900075612046FFF748FFE26D3F239340836011
:106FA00000206065012384F83530C8E7E16A206B72
:106FB00001430A43DAE740236365012084F8350082
:106FC000BDE70120BBE700BF3F8010F038B50446A5
:106FD000806D054694F8340001282AD0012084F8F9
:106FE000340094F83500012804D0002384F83430AC
:106FF000022038BD022084F835000020606520465C
:10700000FFF7FAFEE26D3F239340AB6022681368FE
:1070100043F016031360236C23B12268136843F016
:10702000080313602268136843F001031360002013
:10703000DFE70220DDE770B50446836D1E4600F0F1
:1070400027FA94F83530022B06D08023636500239D
:1070500084F83430012070BD05462268136823F09F
:10706000160313602268536923F080035361236C75
:10707000E3B12268136823F00803136022681368E1
:1070800023F00103136023681B6813F0010F11D074
:1070900000F0FEF9431B052BF5D92023636503207F
:1070A00084F83500002384F83430D4E7A36C002B37
:1070B000DFD1E3E7E26D3F239340B360012384F81F
:1070C0003530002084F83400C5E790F83530022BC5
:1070D00003D08023436501207047052380F83530B5
:1070E0000268136823F0010313600020704700005A
:1070F000F0B583B0044600230193724B1D68724BB8
:10710000A3FB0535AD0A876D3E68C26D0823934029
:10711000334210D003681A6812F0040F0BD01A68BB
:1071200022F004021A60C26D08239340BB60436DD5
:1071300043F001034365E26D01239340334209D0DC
:107140002268526912F0800F04D0BB60636D43F077
:1071500002036365E26D04239340334209D0226841
:10716000126812F0020F04D0BB60636D43F0040399
:107170006365E26D10239340334224D02268126885
:1071800012F0080F1FD0BB6023681A6812F4802F1A
:107190000DD01B6813F4002F04D1236C9BB1204643
:1071A000984710E0A36C73B1204698470BE01A682B
:1071B00012F4807F03D11A6822F008021A60236C4F
:1071C0000BB120469847E26D20239340334254D0C0
:1071D0002268126812F0100F4FD0BB6094F835305F
:1071E000052B0ED023681A6812F4802F33D01B6849
:1071F00013F4002F2AD1636C002B3ED02046984711
:107200003BE02268136823F0160313602268536979
:1072100023F080035361236CA3B12268136823F029
:1072200008031360E26D3F239340BB60012384F8A1
:107230003530002384F83430236D002B3FD02046B6
:1072400098473CE0A36C002BE7D1EBE7E36BA3B1DD
:107250002046984711E01A6812F4807F09D11A6815
:1072600022F010021A60012384F83530002384F8DC
:107270003430E36B0BB120469847636DFBB1636D0F
:1072800013F0010F17D0052384F8353022681368F6
:1072900023F001031360019B01330193AB4204D837
:1072A00023681B6813F0010FF5D1012384F83530F2
:1072B000002384F83430E36C0BB12046984703B0C8
:1072C000F0BD00BF08000020B5814E1B002807DB81
:1072D00000F01F02400901239340024A42F8203087
:1072E000704700BF00E100E000280CDB00F01F0247
:1072F0004009012393402030034A42F82030BFF375
:107300004F8FBFF36F8F704700E100E0002808DB6C
:107310000901C9B200F1604000F5614080F8001336
:10732000704700F00F000901C9B2014B19547047B2
:1073300014ED00E000B500F00700A0F1030CBCF173
:10734000040F07D8C0F1070E0430062806D84FF006
:10735000000C03E04FF0040E4FF0000C4FF0FF3331
:1073600003FA0EF021EA000101FA0CF103FA0CF322
:1073700022EA030241EA020000BD0000074AD36886
:1073800023F4E0631B041B0C000200F4E0600343E1
:1073900043F0BF6343F40033D360704700ED00E077
:1073A00010B50446054BD868C0F30220FFF7C2FFB2
:1073B00001462046FFF7AAFF10BD00BF00ED00E028
:1073C00008B5FFF783FF08BD08B5FFF78DFF08BDBF
:1073D0000138B0F1807F0BD24FF0E0235861054AAD
:1073E000F02182F823100020986107221A6170476B
:1073F0000120704700ED00E010B504460E4B186800
:107400000E4B1A784FF47A73B3FBF2F3B0FBF3F040
:10741000FFF7DEFF68B90F2C01D901200AE0024610
:1074200021464FF0FF30FFF7BBFF054B1C600020EB
:1074300000E0012010BD00BF080000200000002077
:107440000400002008B50B4B1A6842F400721A6061
:107450001A6842F480621A601A6842F480721A60F4
:107460000320FFF78BFF0F20FFF7C6FFFEF706F99B
:10747000002008BD003C0240034A1168034B1B7802
:107480000B441360704700BF500400200000002030
:10749000014B1868704700BF5004002038B50446FF
:1074A000FFF7F6FF0546B4F1FF3F02D0044B1B780F
:1074B0001C44FFF7EDFF401BA042FAD338BD00BFCC
:1074C0000000002010B5026A036A23F00103036282
:1074D000D0F804E0836923F073030C6844EA030CDA
:1074E00022F002028B6813430E4A90420AD00D4AE2
:1074F00090420ED0C0F804E0C0F818C04A68426359
:10750000036210BD23F00803CA681A4322F0040383
:10751000EDE72EF4407E4A6942EA0E028C6944EAA5
:10752000020EE7E70000014010B5036A026A22F488
:1075300080720262D0F804C0C26922F073020C6843
:1075400044EA020E23F400738A6843EA02230F4AD6
:1075500090420AD00D4A90420FD0C0F804C0C0F843
:107560001CE04A68C263036210BD23F40063CA686A
:1075700043EA022323F48063ECE72CF4405C4A697D
:107580004CEA021C8A694CEA021CE6E70000014052
:1075900010B5036A026A22F480520262D0F804C075
:1075A000C26922F4E6420C6842EA042223F4005342
:1075B0008C6843EA0433DFF820E0704506D0C0F859
:1075C00004C0C2614A680264036210BD2CF4804C9E
:1075D0004C694CEA841CF2E700000140704700004F
:1075E00090F83D30012B2FD1022380F83D30026806
:1075F000D36843F00103D3600368154A934218D05F
:10760000B3F1804F15D0A2F57C42934211D002F520
:10761000806293420DD002F58062934209D002F558
:107620009A32934205D01A6842F001021A60002093
:1076300070479A6802F00702062A07D01A6842F0DB
:1076400001021A6000207047012070470020704737
:1076500000000140704770477047704770B504469E
:107660000368DE681D6915F0020F10D016F0020FD6
:107670000DD06FF002021A610123037703689B6942
:1076800013F0030F5ED0FFF7E6FF0023237715F01A
:10769000040F12D016F0040F0FD023686FF004020D
:1076A0001A610223237723689B6913F4407F4FD02C
:1076B0002046FFF7D0FF0023237715F0080F12D0E4
:1076C00016F0080F0FD023686FF008021A61042328
:1076D00023772368DB6913F0030F40D02046FFF7C0
:1076E000BAFF0023237715F0100F12D016F0100FF9
:1076F0000FD023686FF010021A61082323772368E4
:10770000DB6913F4407F31D02046FFF7A4FF00234C
:10771000237715F0010F02D016F0010F2DD115F0CF
:10772000800F02D016F0800F2FD115F0400F02D03D
:1077300016F0400F31D115F0200F02D016F0200FB7
:1077400033D170BDFFF786FF2046FFF785FF9CE72A
:107750002046FFF77FFF2046FFF77EFFABE720467E
:10776000FFF778FF2046FFF777FFBAE72046FFF7DD
:1077700071FF2046FFF770FFC9E723686FF0010231
:107780001A612046FDF7E2FBC9E723686FF080022B
:107790001A61204600F012FBC7E723686FF0400231
:1077A0001A612046FFF759FFC5E723686FF02002F2
:1077B0001A61204600F001FBC3E700000368274A76
:1077C00090420ED0B0F1804F0BD0A2F57C42904297
:1077D00007D002F58062904203D002F580629042A9
:1077E00003D123F070034A6813431C4A90421AD015
:1077F000B0F1804F17D0A2F57C42904213D002F531
:10780000806290420FD002F5806290420BD002F568
:107810009A32904207D002F58062904203D002F57E
:107820008062904203D123F44073CA68134323F06B
:1078300080034A6913438A68C2620A688262074AFF
:10784000904207D0026842F00402026001224261C5
:10785000036070470A690263F4E700BF000001405B
:1078600040B310B5044690F83D30F3B1022384F8DC
:107870003D30214651F8040BFFF7A0FF012384F8A7
:10788000463084F83E3084F83F3084F8403084F845
:10789000413084F8423084F8433084F8443084F82E
:1078A000453084F83D30002010BD80F83C30FFF7B3
:1078B00095FEDBE70120704740B310B5044690F811
:1078C0003D30F3B1022384F83D30214651F8040BDA
:1078D000FFF774FF012384F8463084F83E3084F8C3
:1078E0003F3084F8403084F8413084F8423084F8E6
:1078F000433084F8443084F8453084F83D3000202B
:1079000010BD80F83C30FDF70DFFDBE7012070472C
:10791000002855D070B50D46044690F83D30002B38
:1079200049D0022384F83D302268936823F48043D1
:1079300023F007039360214651F8040BFFF73EFF45
:1079400021688B688A69D1F820C02868184322F41E
:10795000407222F00302AB68AE6943EA0623134388
:1079600023F47C4323F0FC03EA68EE6942EA062232
:107970001A432B6A1B032E6943EA061313432CF0A8
:10798000AA0C6A686D6942EA051242EA0C02886034
:1079900021688B6123681A62012384F8463084F8D9
:1079A0003E3084F83F3084F8423084F8433084F825
:1079B0003D30002070BD80F83C30FDF7CBFEB0E7D5
:1079C0000120704710B5036A026A22F010020262B9
:1079D000D0F804C0826922F4E6420C6842EA04222C
:1079E00023F020038C6843EA0413DFF840E070457D
:1079F0000AD0DFF838E070450ED0C0F804C08261CC
:107A00004A688263036210BD23F08003CC6843EAB6
:107A1000041323F04003ECE72CF4406C4C694CEA6F
:107A2000840C8C694CEA840CE7E700BF000001403D
:107A300038B590F83C30012B69D00446012380F81A
:107A40003C30082A4ED01BD8002A33D0042A15D146
:107A50000D460068FFF7B6FF2268936943F40063A0
:107A600093612268936923F4806393612268936928
:107A7000296943EA0123936100202FE018462DE095
:107A80000C2A15D10D460068FFF782FD2268D369E4
:107A900043F40063D3612268D36923F48063D36124
:107AA0002268D369296943EA0123D361002015E0E4
:107AB000012013E00D460068FFF704FD226893697A
:107AC00043F0080393612268936923F004039361F0
:107AD0002268936929690B4393610020002384F88D
:107AE0003C3038BD0D460068FFF71EFD2268D369A3
:107AF00043F00803D3612268D36923F00403D36100
:107B00002268D36929690B43D3610020E6E702208C
:107B1000E7E701F01F014FF0010C0CFA01FC036ACA
:107B200023EA0C030362036A8A401343036270472B
:107B300010B504460846002931D194F83E30013B87
:107B400018BF0123002B60D100283ED1022384F806
:107B50003E30012201462068FFF7DBFF23682D4AF3
:107B6000934242D023682B4A934243D0B3F1804FD3
:107B700040D0A2F57C4293423CD002F58062934211
:107B800038D002F58062934234D002F59A329342A3
:107B900030D01A6842F001021A60002034E0042953
:107BA00007D008290BD094F84130013B18BF0123BE
:107BB000C8E794F83F30013B18BF0123C2E794F8AF
:107BC0004030013B18BF0123BCE7042805D008283A
:107BD00007D0022384F84130BBE7022384F83F300A
:107BE000B7E7022384F84030B3E75A6C42F400420E
:107BF0005A64B7E79A6802F00702062A07D01A68A3
:107C000042F001021A60002010BD0120FCE70020B4
:107C1000FAE700BF0000014010B5044690F83E00AE
:107C2000C0B294F83F3094F84220D2B294F843C0E6
:107C30008E46C9B901284CD1012A4BD1022384F8C0
:107C40003E3084F84230BEF1000F30D0BEF1040F58
:107C500039D0012200212068FFF75BFF01220421B7
:107C60002068FFF756FF27E0DBB25FFA8CFC04299F
:107C700012D0012833D1012B2CD1012A31D1BCF1F2
:107C8000010F30D1022384F83E3084F83F3084F86D
:107C9000423084F84330D6E7012B1CD1BCF1010FF0
:107CA0001BD1022384F83F3084F84330CBE7012214
:107CB00071462068FFF72DFF2268136843F0010327
:107CC0001360002006E0012204212068FFF721FF55
:107CD000F2E7012010BD0120FCE71846FAE7012079
:107CE000F8E71846F6E71046F4E7000090F83C2065
:107CF000012A35D000B50346012280F83C2002223B
:107D000080F83D2002685068D2F808E020F0700C3E
:107D1000086840EA0C0050601A681248824212D08B
:107D2000B2F1804F0FD0A0F57C4082420BD000F51D
:107D30008060824207D000F58060824203D000F567
:107D40009A30824205D12EF0800E496841EA0E0138
:107D50009160012283F83D20002083F83C0000BDA3
:107D60000220704700000140024690F83C30012B91
:107D700021D0012380F83C30CB6823F4407388681D
:107D8000034323F480634868034323F400630868D3
:107D9000034323F480530869034323F400534869E1
:107DA000034323F48043C9690B4311684B640020EB
:107DB00082F83C00704702207047704770470268A5
:107DC00002F10C0353E8003F23F0C0030C3242E8F9
:107DD00000310029F3D1202380F841307047026838
:107DE00002F10C0353E8003F23F490730C3242E895
:107DF00000310029F3D1026802F1140353E8003F77
:107E000023F00103143242E800310029F3D1036B5F
:107E1000012B05D0202380F84230002303637047F4
:107E2000026802F10C0353E8003F23F010030C3208
:107E300042E800310029F3D1ECE790F84130212BE2
:107E400001D0022070478368B3F5805F17D0036AC2
:107E50005A1C02621A7803685A60C38C9BB2013BB9
:107E60009BB2C3844BB90268D36823F08003D3600C
:107E70000268D36843F04003D36000207047036971
:107E8000002BE4D1036A1B880268C3F30803536024
:107E9000036A02330362E0E710B50446026813691F
:107EA00023F44053C1680B431361836802691A438A
:107EB00043691A43C3691A430168CB6823F4164324
:107EC00023F00C031343CB600268536923F440731F
:107ED00081690B4353610368314A934206D002F52E
:107EE0008062934202D0FEF759FE01E0FEF766FE83
:107EF000E369B3F5004F29D00021031849411B184D
:107F000041F10001C90041EA5371DB0018186368B0
:107F10004FEA83024FEA937341F10001FCF7FCFE44
:107F2000204AA2FB00314909642303FB11031B0112
:107F30003233A2FB03235B0903F0F00202EB0112D0
:107F400003F00F03216813448B6010BD0023021857
:107F500043EB0301121841F10001C90041EA5271DB
:107F6000D200101841F10001626892185B41FCF7E1
:107F7000D3FE0C4AA2FB00314909642303FB110321
:107F8000DB003233A2FB03235B095A0002F4F872D0
:107F900002EB011203F00703216813448B60D4E75E
:107FA000001001401F85EB512DE9F04182B00446DD
:107FB0000D4616469846089F23681B6835EA03035A
:107FC0000CBF4FF0010C4FF0000CB44526D1B7F1B7
:107FD000FF3FF1D0FFF75CFA4346C01AB84221D800
:107FE00017B32368DA6812F0040FE5D0802DE3D0D0
:107FF000402DE1D01A6812F0080FDDD00025019560
:108000001A6801925B680193019B2046FFF7E7FE27
:108010000823636484F84050012000E0002002B08F
:10802000BDE8F0810320FAE70320F8E760B310B55C
:10803000044690F8413013B3242384F84130226879
:10804000D36823F40053D3602046FFF725FF22684E
:10805000136923F4904313612268536923F02A03C0
:1080600053612268D36843F40053D36000206064F6
:10807000202384F8413084F84230606310BD80F8DA
:108080004030FDF74DFCD7E7012070472DE9F04166
:1080900084B01E4690F84130202B57D104460D463F
:1080A000002957D003920AB9012050E0002343640D
:1080B000212380F84130FFF7EBF90746039BA384A7
:1080C000E384A368B3F5805F02D00023984616E0EE
:1080D00023693BB30023984611E0202384F8413004
:1080E000032034E0424632F8023B90462268C3F354
:1080F00008035360E28C92B2013A92B2E284E38CBC
:108100009BB293B100963B46002280212046FFF7A8
:108110004BFF0028E1D1002DE4D015F8012B236896
:108120005A60E7E7A8461D46E9E700963B4600226D
:1081300040212046FFF738FF18B9202384F841304A
:1081400005E0202384F84130032000E0022004B041
:10815000BDE8F0810120FAE710B5044603685B69C9
:1081600090F84120212A09D023685B6903F040037D
:1081700094F84220222A19D0002010BD03F0800379
:10818000002BF1D0226802F1140353E8003F23F0E2
:108190008003143242E800310029F3D1A06B08B10A
:1081A000FEF749FF2046FFF70AFEDDE7002BE3D08C
:1081B000226802F1140353E8003F23F04003143215
:1081C00042E800310029F3D1E06B08B1FEF733FF3C
:1081D0002046FFF704FECFE7704708B50168CA687C
:1081E00022F04002CA60202280F84120FFF7F4FF0D
:1081F000002008BD70477047704710B5846B236836
:108200005B6994F84120212A0FD023685B6903F051
:10821000400394F84220222A11D0636C43F01003EB
:1082200063642046FFF7E8FF10BD03F08003002BD6
:10823000EBD00023E3842046FFF7C1FDE5E7002BE8
:10824000EBD00023E3852046FFF7C9FDE5E708B53D
:10825000806B0023C385FFF7CFFF08BD704790F800
:108260004230222B67D18368B3F5805F4DD0826A9C
:10827000B3F5805F04D0002B54D10369002B51D19A
:1082800003685B681370836A01338362C38D9BB29A
:10829000013B9BB2C385002B4FD100B583B0026870
:1082A000D36823F02003D3600268D36823F480737B
:1082B000D3600268536923F001035361202380F8DF
:1082C000423000234363036B012B31D1002303634E
:1082D000026802F10C0353E8003F23F010030C3254
:1082E00042E800310029F3D103681A6812F0100F38
:1082F00005D001911A6801925B680193019B818D01
:10830000FFF7ACFF002003B000BD0269002AAED128
:10831000826A03685B68C3F308031380836A0233CD
:108320008362B3E703685B6803F07F031370AAE717
:10833000FFF760FFE6E7022070470020704700006B
:1083400010B582B0044602681368D068516913F012
:108350000F0F09D113F0200F0CD010F0200F09D00F
:108360002046FFF77CFF16E011F0010115D110F453
:10837000907F12D1216B012979D013F0800F03D0A7
:1083800010F0800F40F01F8113F0400F03D010F069
:10839000400F40F01C8102B010BD13F0010F06D059
:1083A00010F4807F03D0626C42F00102626413F02B
:1083B000040F04D019B1626C42F00202626413F03F
:1083C000020F04D019B1626C42F00402626413F02F
:1083D000080F07D010F0200F00D119B1626C42F0E5
:1083E00008026264626C002AD5D013F0200F02D01C
:1083F00010F0200F29D123685B6903F04003626C01
:1084000012F0080F00D163B32046FFF7E8FC2368A1
:108410005B6913F0400F20D0226802F1140353E887
:10842000003F23F04003143242E800310029F3D129
:10843000E36B73B1684A1A65E06BFEF746FE0028ED
:10844000A9D0E06B036D9847A5E72046FFF707FF2B
:10845000D1E72046FFF7D0FE9DE72046FFF7CCFE90
:1084600099E72046FFF7C8FE0023636493E713F003
:10847000100F82D010F0100F3FF47FAF0023019354
:108480001368019353680193019B536913F0400FE4
:108490005ED0E26B13685B689BB2002B49D0A18D64
:1084A000994246D9E385D369B3F5807F36D02268F7
:1084B00002F10C0353E8003F23F480730C3242E8CE
:1084C00000310029F3D1226802F1140353E8003F80
:1084D00023F00103143242E800310029F3D122686D
:1084E00002F1140353E8003F23F04003143242E842
:1084F00000310029F3D1202384F84230216322681F
:1085000002F10C0353E8003F23F010030C3242E861
:1085100000310029F3D1E06BFEF78DFD0223636388
:10852000A18DE38D9BB2C91A89B22046FFF796FE52
:1085300031E7A18D99427FF42EAFD369B3F5807FE7
:108540007FF429AF022363632046FFF787FE22E70B
:10855000A18DE38D9BB2C91A89B2E38D9BB2002B2A
:108560003FF419AF00293FF416AF226802F10C0363
:1085700053E8003F23F490730C3242E800300028A7
:10858000F3D1226802F1140353E8003F23F0010302
:10859000143242E800300028F3D1202384F842301E
:1085A0002063226802F10C0353E8003F23F010031C
:1085B0000C3242E800300028F3D1022363632046E6
:1085C000FFF74CFEE7E62046FFF737FCE3E62046E0
:1085D000FFF703FEDFE600BF4F82000808B5806B9F
:1085E00001234363036B012B02D0FFF704FE08BD98
:1085F000818D4908FFF732FEF9E708B50346806B25
:108600001B681B6813F4807F2BD10023C38502688D
:1086100002F10C0353E8003F23F480730C3242E86C
:1086200000310029F3D1026802F1140353E8003F3E
:1086300023F00103143242E800310029F3D102682B
:1086400002F1140353E8003F23F04003143242E8E0
:1086500000310029F3D1202380F84230036B012B35
:1086600007D000234363036B012B0FD0FFF7C2FD3C
:1086700008BD026802F10C0353E8003F23F0100329
:108680000C3242E800310029F3D1EAE7818DFFF78F
:10869000E5FDEDE730B583B004461346816282857F
:1086A00000224264222084F842002448E56BE863FB
:1086B0002348E56B28642348E56BE864E06B0265BA
:1086C00020680A46011DE06BFEF780FC00282ED1D1
:1086D000019023681A6801925B680193019B2369EA
:1086E0005BB1226802F10C0353E8003F43F480734E
:1086F0000C3242E800310029F3D1226802F1140360
:1087000053E8003F43F00103143242E800310029EE
:10871000F3D1226802F1140353E8003F43F0400311
:10872000143242E800310029F3D103B030BD1023E8
:108730006364202384F842300120F6E7FB850008BB
:10874000DD850008FB81000808B590F84230202B39
:1087500008D149B10AB9012008BD00230363FFF71E
:1087600099FFF9E70220F7E70120F5E750B338B5A4
:10877000044603684CF6CC421A60036845F2555231
:108780001A60036842685A60036882689A60FEF75C
:108790007FFE05462368DA6812F0030F0DD0FEF75E
:1087A00077FE401B41F601039842F3D92368DB684A
:1087B00013F0030FEED0032003E04AF6AA221A605A
:1087C000002038BD0120704703684AF6AA221A60CB
:1087D00000207047034AD2F8883043F47003C2F88F
:1087E0008830704700ED00E010B5094C00212046AC
:1087F000FFF79EF904212046FFF79AF90821204649
:10880000FFF796F90C212046FFF792F910BD00BF43
:10881000B4030020032863D8F8B50C46B1F57A7F7D
:1088200009DC11F57A7F08DA05462E4B034493F8EC
:10883000D0602D4C08E04FF47A740546294B034470
:1088400093F8D060002C22DA284B05EB850003EB6F
:1088500080021746321E18BF0122B98853F8200043
:10886000FEF7ACFAB6FA86F25209B989B868FEF793
:10887000A5FA644224B205EB85051C4B03EB850386
:108880001B69D3B91A4B1B68A4B25C63F8BD174BC4
:1088900000EB800003EB80021746B6FA86F252091D
:1088A000B98853F82000FEF789FA321E18BF01225A
:1088B000B989B868FEF782FADDE7042B06D0082BE9
:1088C00009D00B4B1B68A4B21C64DFE7084B1B6884
:1088D000A4B29C63DAE7064B1B68A4B2DC63D5E75D
:1088E000704700BF6807002018FCFFFF60240108E4
:1088F000B4030020224B034493F8E230002B3BD01A
:108900008446202B25D8012B38D910B51D4A12F8E2
:108910000CE01D4A12F80C20734500D29E469E457D
:1089200003D20EF1010E5FFA8EFE164800F80CE03D
:1089300002EB4C14154840F82410013292FBF3F17D
:1089400003FB1122104B03F80C2000231846194694
:108950000BE02023D9E703EB4C140C4A52F82420F7
:10896000101841EBE2710133DBB29E45F3D8724639
:108970000023FCF781F910BD084670470846704790
:1089800068070020880400208C0400209004002048
:108990000346114A024492F8E220C2B1632A0FD87A
:1089A000012A16D90D4850F8230000B951B9091A07
:1089B000013291FBF2F10844084A42F82300704763
:1089C0006322EFE7054A42F823100846704708463D
:1089D00070470846704700BF6807002078040020F1
:1089E000374B034493F8E230002B64D00246202B2F
:1089F00022D8012B61D910B5A0B0324810F802C0BE
:108A00003148805C634500D29C469C4503D20CF102
:108A1000010C5FFA8CFC2B4C04F802C000EB421EE8
:108A20002A4C44F82E10411C91FBF3F003FB10116B
:108A3000254B995400230DE02023DCE703EB421083
:108A4000224951F8200020A901EB830141F8800C54
:108A50000133DBB29C45F1D8002420460CF1FF33F2
:108A60009C421FDA0134E4B2234601E00133DBB259
:108A70009C45F2D920AA02EB800252F8802C20A952
:108A800001EB830151F8801C8A42EFDD0DF1800E6D
:108A90000EEB800E4EF8801C20A901EB830141F8FB
:108AA000802CE3E7CCF3470320AA02EB830353F8BF
:108AB000800C20B010BD084670470846704700BFC4
:108AC00068070020880400208C0400209004002007
:108AD00003281ED8104B1B5CABB9104B53F8203049
:108AE0001B685A6A92B20E4931F81030D31A21F835
:108AF00010200C4A52F8201001FA83F342F820307B
:108B000052F820007047054B53F820301B68586A14
:108B100070470020704700BFB0240108B42401084A
:108B2000D0060020D8060020032803D8024B53F8B3
:108B3000200070470020704790060020032803D8CB
:108B4000024B53F82000704700207047A006002019
:108B5000032807D80023044A1354044A1354044A30
:108B600042F82030704700BF8C04002088040020A9
:108B700078040020032820D80023104A42F820302F
:108B80000F4A22F810300F4A42F820300E4A42F8BD
:108B900020300E4A42F820300D4A42F820304FF083
:108BA00000010C4A11540C4A13540C4A42F820306C
:108BB0000B4A52F82020126853627047D8060020F2
:108BC000D0060020C0060020B0060020A00600202D
:108BD000900600208C0400208804002078040020E7
:108BE000B424010830B58BB02422002101A805F07F
:108BF000F4FB0323019301220392042305930792BC
:108C0000099300242AE00023164A42F82430164A29
:108C100022F81430154A42F82430154A42F824301C
:108C2000144A42F82430144A42F824304FF000012C
:108C3000124A1155124A1355124A42F82430124B67
:108C400053F8245001A92846FEF762FEE0B2FFF770
:108C500091FF3C212846FEF7DFFF0134032CD2DDD3
:108C60000BB030BDD8060020D0060020C006002082
:108C7000B0060020A0060020900600208C040020F2
:108C80008804002078040020B4240108032800D9B7
:108C9000704770B50446FEF7FBFB05462046FFF71C
:108CA00017FF0646744B53F82430E91A002B63D0A3
:108CB000002970D0714B53F82400301A04F164037A
:108CC0006F4A32F813306F4A125D62B9DFF8BCC1E7
:108CD0004CF82420DFF8B8C14CF82420694A4FF042
:108CE000010C02F804C0DFF8A4C15CF8242002449F
:108CF0004CF82420DFF898C15CF8240008444CF8B4
:108D000024004FEA830C604981FB0CE18910BCF11F
:108D1000130F00DC022103F1FF3C1FFA8CFCBCF1B5
:108D2000620F57D9C3B34FEAE27E4FEA4E1C4CEABA
:108D3000D26C5101891A6CEB0E0C4FEA8C0C4CEA88
:108D4000917C89008A184EEB0C0E4FEA0E1C4CEAFF
:108D5000127C1101891A6CEB0E0C4FEA4C1CA3FB20
:108D600000039B00820043EA907348014CEAD16102
:108D7000FBF782FF014610E0404B43F824003E4BD6
:108D800043F824500023414A42F82430404A42F834
:108D900024303C4A135570BD194600233B4A42F823
:108DA00024303B4A42F824303A4B43F82410344BE9
:108DB000234493F8DE30032B54D8022B44D0032BEA
:108DC00049D0012B4ED12046FFF794FD324B43F89A
:108DD00024004AE0312805D882EAE27CACEBE27C50
:108DE0008C4542DB4FEAE27E4FEA4E1C4CEAD26CE5
:108DF0005101891A6CEB0E0C4FEA8C0C4CEA917CF9
:108E000089008A184EEB0C014FEA011C4CEA127CD7
:108E10004FEA021EBEEB020E6CEB01014901A3FBFF
:108E200000039B00820043EA90734FEA4E1041EA30
:108E3000DE61FBF721FF0146144B002243F824209A
:108E4000134B43F82420AFE72046FFF7A1FD124B58
:108E500043F8240009E02046FFF7C2FD0E4B43F81B
:108E6000240002E00C4B43F82410044B43F8246028
:108E7000014B43F824508EE7B0060020C0060020C6
:108E800068070020540400206766666668040020B6
:108E900058040020A006002090060020002300E0D7
:108EA0000133032B17DC0C4AD25C002AF8D10B4AA1
:108EB00052F823201268516A89B2094830F8132009
:108EC0008A1A20F81310074951F8230000FA82F299
:108ED00041F82320E4E77047B0240108B4240108D6
:108EE000D0060020D8060020002209E002EB420153
:108EF000054B03EB81030021196059609960013231
:108F0000032AF3DD704700BF38070020032800F272
:108F1000A78000B5544B03EB0012916A07EE101ABC
:108F2000D2F82CC0C21C110103EB0212595852682E
:108F300000F11A0E53F82EE007EE90EA70EE600A88
:108F4000034493F8D830012B56D000EB400E474B2A
:108F500003EB8E03D3ED006A76EEA06AC3ED006AE0
:108F600006EE102AF4EEC66AF1EE10FA03DD3F4B6E
:108F700003EB8E031A6000EB400E3C4B03EB8E03B9
:108F800093ED006A06EE902AF1EE666AB4EEE66AA8
:108F9000F1EE10FA04D5354B03EB8E03C3ED006AF6
:108FA000324B00EB400203EB8202D2ED016A70EE1D
:108FB000E66AC2ED010A27EE207A92ED006A05EE1C
:108FC00090CA26EE256A37EE067A06EE101A66EE8D
:108FD000266A37EE267AF4EEC77AF1EE10FA01D55A
:108FE000B0EE677AB1EE670AB4EEC70AF1EE10FA96
:108FF00001DCB0EE470A00BD1C4A00EB400302EB67
:10900000830393ED016A70EEC66A26EE877A06EE58
:1090100090CA66EEA06A37EE267A76EE066A70EEA1
:10902000E66AD3ED025A76EEA56A05EE901A66EE70
:10903000A56A37EE267A83ED026AC3ED010AF4EEE3
:10904000C77AF1EE10FA01D5B0EE677AB1EE670A91
:10905000B4EEC70AF1EE10FACDDCB0EE470ACAE76B
:109060009FED030A704700BF680700203807002003
:1090700000000000032808D8044B00EB400203EB7B
:109080008202002111605160916070473807002012
:1090900000230EE0084A02EBC30200211160516078
:1090A00003EB4300054A02EB8002116051609160BE
:1090B0000133032BEEDD704718070020E80600207F
:1090C000032800F2DB8000B56E4B00F11E0253F85E
:1090D000222007EE102A00F1220253F822C000F1EC
:1090E000260253F8222005EE102A00F12A0253F836
:1090F000222007EE902A00F12E0253F8222003EBE3
:10910000000E9EF8F6E000F1740103EB4103DB88EA
:109110004BB900F164035B4931F813108B0019B9A6
:10912000B7EE006A08E09B0006EE903AF8EEE66AB9
:10913000DFED555A85EEA66A66EE206A30EE660AC5
:10914000BEF1010F4ED0514B03EBC003D3ED006ACB
:1091500076EE806AC3ED006A06EE102AF4EEC66A67
:10916000F1EE10FA03DD494B03EBC0031A60474BE5
:1091700003EBC00393ED006A06EE902AF1EE666AF7
:10918000B4EEE66AF1EE10FA04D5404B03EBC003EF
:10919000C3ED006A3D4B03EBC003D3ED016A70EEF3
:1091A000666A83ED010A27EE007A93ED006A05EE08
:1091B00090CA26EE256A37EE067A65EE266A37EE05
:1091C000267AF4EEC77AF1EE10FA01D5B0EE677A9E
:1091D000B1EE670AB4EEC70AF1EE10FA4DDCB0EE5C
:1091E000470A4AE000EB4002294B03EB820393ED70
:1091F000006A70EE466A26EE877A06EE90CA66EE40
:10920000806A37EE267A76EE066A70EE666AD3EDED
:10921000015A76EEA56A66EE856A37EE267A83ED08
:10922000016A83ED000AD3ED026A36EE877A83ED98
:10923000027AB4EEE77AF1EE10FA04DD144B03EB98
:109240008203C3ED027A00EB4002114B03EB820371
:1092500093ED027AB1EE670AB4EEC07AF1EE10FA3D
:1092600004D50B4B03EB820383ED020A00EB4000B5
:10927000074B03EB800090ED020A00BD9FED050A4D
:10928000704700BF680700200000614518070020F4
:10929000E80600200000000003280DD8074A02EB72
:1092A000C002002313605360054A00EB400102EB4B
:1092B00081010B604B608B60704700BF1807002076
:1092C000E806002000B585B0642302930192009166
:1092D00001230246A0210248FCF7B8FF05B000BDFB
:1092E000FC03002000B585B0C823029301920091D1
:1092F00001230246A0210648FCF7F6FE10B100202B
:1093000005B000BD0620FEF7C9F80120F8E700BF50
:10931000FC03002000B586464FF0000C4FF6FF70AE
:1093200010E040080133DBB2072B07D810F0010F23
:10933000F7D04AF2010282EA5000F3E70CF1010C87
:109340001FFA8CFC8C4504D21EF80C3058400023C8
:10935000EAE700BD10B53F4CFA220021204605F097
:109360003CF83D4B23600123E371022384F8213054
:109370004FF4424363840123A384002330E0354A41
:1093800003F108010A2022F8110003F10C01142056
:1093900022F8110002EB03114FF07E508862D91CB5
:1093A00002EB0111DFF8B8C0C1F804C003F11A01E3
:1093B00002EB81012948086003F11E0102EB8101E3
:1093C000DFF8A0E0C1F800E003F12A0102EB81011F
:1093D000C1F800C003F12E0102EB810210600133DD
:1093E000032BCCDD1B4B012283F8D420022283F80F
:1093F000D520032283F8D620042283F8D720002327
:1094000000E00133032BFCDD124B012283F8DD2049
:10941000002305E00F4A1A44012182F8E2100B44B0
:10942000032BF7DD002308E003F17001094A02EB8A
:10943000410242F21071D1800133032BF4DD00238D
:1094400000E00133032BFCDD002300E00133032B9C
:10945000FCDD10BD680700200052444D00007A4436
:109460000000FA430000A04030B5C1B01D4D0024FB
:109470006C81F621281DFFF74DFF6881F92C16D865
:10948000C4F1FA0292B2A4F1F2039BB2082B0CD8F9
:1094900014492144E0B2FFF725FF034688B1124882
:1094A000FFF792F90834A4B2E8E70822F0E7FA22BD
:1094B00001A90020FFF706FF019A0C4B9A4203D046
:1094C0000023184641B030BDBDF80E400023ADF872
:1094D0000E30F62102A8FFF71DFFA042F0D10123B4
:1094E000EFE700BF68070020F80100200052444D5C
:1094F00070B5194CFA2221460020FFF7E3FE2268DE
:10950000164B9A4205D0FFF725FFFFF7ADFF00206D
:1095100070BD114C658900236381F621201DFFF782
:10952000F9FE6581854205D10B4B0120D8710022DF
:109530001A72EDE7234624795D799E79FFF70AFFD9
:109540000CB905B91EB1044B1C715D719E71FFF71A
:109550008BFF0020DCE700BF680700200052444D6D
:1095600010B5FEB0FA223FA90020FFF7ABFE3F9AEC
:109570003B4B9A4205D0FFF777FF034618467EB073
:1095800010BDBDF806410023ADF80631F62140A814
:10959000FFF7C0FEA04203D0FFF766FF0346EDE7EA
:1095A000304B93F821208DF81D21D3F82220CDF8DF
:1095B0001E2193F8DD308DF8D93101238DF8033168
:1095C00000248DF80441ADF80641F62140A8FFF7CC
:1095D000A1FEADF80601F92C17D8C4F1FA0292B237
:1095E000A4F1F2039BB2082B0DD83FA92144E0B2AD
:1095F000FFF778FE03460028C0D01B48FFF7E4F8C9
:109600000834A4B2E7E70822EFE7FA22694600200F
:10961000FFF758FE009A124B9A4211D19DF8212073
:109620009DF81D319A420BD1DDF82220DDF81E3164
:109630009A4205D19DF8DD209DF8D9319A4201D09A
:1096400000239BE7BDF80A400022ADF80A20F6216E
:1096500001A8FFF75FFEA042F2D101238EE700BF11
:109660000052444D68070020F8010020F8B5064C70
:1096700027796679A579FFF76DFE27716671A57167
:10968000FFF7F2FEF8BD00BF6807002030B583B0D9
:10969000002318E0244A02EB83020021116000221B
:1096A000224921F81320224941F82320214941F879
:1096B00023204FF000002049C854204941F82320BE
:1096C0001F49CA540133032BE4DD00251D4B1D60E7
:1096D0001D4B1D70FFF708FCFFF7DAFC01951B4BD3
:1096E0005A6C42F480325A645B6C03F48033019309
:1096F000019B174C174B236053236360A56040F216
:10970000E733E360A5612046FEF7AAF82A460A215E
:109710001820FDF745FE1820FDF752FE2046FDF704
:109720005FFF03B030BD00BF04090020FC0800202B
:10973000DC0800207C080020780800206808002051
:1097400064080020D8080020D40800200038024017
:109750008C0800200040014008B50248FDF77EFF5C
:1097600008BD00BF8C080020032805D8044B03EB7C
:10977000800393ED000A70479FED020A704700BF17
:10978000040900200000000090B10E4BDB8CBBB13F
:1097900010B51C46632B01D864231C46FDF778FEE8
:1097A000094B1B6843B1C01AA04205D8002006E04F
:1097B000064B1870012070470120044B187010BD33
:1097C0001846704768070020D8080020D4080020F9
:1097D000032800D9704770B5044610EE106A0D4694
:1097E0000846FFF7D1FF00B970BD094B03EB8403B6
:1097F0001E60FDF74DFE074B43F82400002DF3D10A
:10980000FDF746FE044B1860044B00221A70EBE78C
:1098100004090020DC080020D8080020D40800201B
:1098200008B50F4BDB8C03B908BDFDF731FE0023F3
:1098300000E00133032BF7DC0A4A52F82320002A08
:10984000F7D0821A0649C98C8A42F2D9064A02EB3D
:10985000830200211160034A002142F82310E8E747
:1098600068070020DC08002004090020F8B52DED71
:10987000028BFFF713FB00231846194600E0013363
:10988000032B09DC7C4AD25C02B101217B4AD25C09
:10989000002AF4D00120F2E7002940D110B30C4691
:1098A0002DE0774B03EB8403D3ED007AFDEEE77AEE
:1098B00017EE903A19B2734B23F81410E0B2FEF78A
:1098C000A9FF0134032C00F3D4806F4B23441B7B8E
:1098D000002BE6D004F164036B4A32F81330002BFE
:1098E000EFD1DEE70446EDE7634B1B5D33B1E0B239
:1098F000FFF7CCF902E0E0B2FFF7C8F90134032C1E
:109900000FDC614B23441B7B012BEDD05A4B1B5DBD
:10991000002BF0D1594B1B5D002BEFD0EBE700245F
:10992000EDE7002432E0564B03EB8403D3ED007ADD
:10993000FDEEE77A534B17EE902A23F8142000230C
:109940004D4A13554D4A13554E4B33F9143004F11B
:109950001A024D4951F8221007EE901AFDEEE77AEF
:1099600017EE901AB1F57A7F01DD4FF47A719942C2
:1099700000DA0B464942994200DC194609B2414BD4
:1099800023F81410E0B2FEF745FF0134032C70DC1D
:109990003D4B23441D7B002DC5D004F164033A4A9E
:1099A00032F81330002BBED0022D02D0334B0022F0
:1099B0001A55324B1B5D0BB1022D2AD02E4B1B5D6D
:1099C000002BC1D02C4B00221A55022D3DD02C4B20
:1099D00003EB8403D3ED007AB0EE678AE5B2284644
:1099E000FFF7A2F800EE900AF8EEE00AB0EE480A9F
:1099F0002846FFF78BFA244B234493F8D830012BE9
:109A00002BD0BDEEC00A1F4B10EE102A23F81420F5
:109A10009AE71A4B00221A55A600194B03EB840350
:109A200093ED008AE3B21F461846FFF751F800EEA7
:109A3000900AF8EEE00AB0EE480A3846FFF740FB1D
:109A4000124B334483ED000AB8E7104B03EB840359
:109A5000D3ED007AB0EE678AC0E70A4A32F81430D4
:109A6000BDEEC00A10EE101A13FA81F322F814307A
:109A70006AE7BDEC028BF8BD78080020640800207E
:109A800004090020FC08002068070020EC080020E2
:109A9000032803D8024B33F91000704700207047A9
:109AA000FC080020032800D9704708B5034B0022AA
:109AB00023F81020FFF7F0FB08BD00BFFC080020D2
:109AC00070B5002427E0184B03EB840300221A60D2
:109AD0000025164B23F81450154B03EB84031A6032
